{
  "_format": "hh-sol-artifact-1",
  "contractName": "NftMarketPlaceV2",
  "sourceName": "contracts/NftMarketplaceV2.sol",
  "abi": [
    {
      "inputs": [
        {
          "internalType": "address",
          "name": "_DutchAuctionFactory",
          "type": "address"
        },
        {
          "internalType": "address",
          "name": "_EngFactoryContract",
          "type": "address"
        }
      ],
      "stateMutability": "nonpayable",
      "type": "constructor"
    },
    {
      "inputs": [
        {
          "internalType": "address",
          "name": "caller",
          "type": "address"
        },
        {
          "internalType": "uint256",
          "name": "tokenId",
          "type": "uint256"
        }
      ],
      "name": "NftMarketPlace__CallerIsOwnerOfToken",
      "type": "error"
    },
    {
      "inputs": [
        {
          "internalType": "address",
          "name": "requester",
          "type": "address"
        }
      ],
      "name": "NftMarketPlace__NotOwnerOfContract",
      "type": "error"
    },
    {
      "inputs": [
        {
          "internalType": "address",
          "name": "sender",
          "type": "address"
        },
        {
          "internalType": "uint256",
          "name": "tokenId",
          "type": "uint256"
        }
      ],
      "name": "NftMarketPlace__NotOwnerOfToken",
      "type": "error"
    },
    {
      "inputs": [
        {
          "internalType": "uint256",
          "name": "tokenId",
          "type": "uint256"
        }
      ],
      "name": "NftMarketPlace__TokenAlreadyOnSale",
      "type": "error"
    },
    {
      "inputs": [
        {
          "internalType": "uint256",
          "name": "tokenId",
          "type": "uint256"
        }
      ],
      "name": "NftMarketPlace__TokenIdUnderOne",
      "type": "error"
    },
    {
      "inputs": [
        {
          "internalType": "uint256",
          "name": "tokenId",
          "type": "uint256"
        }
      ],
      "name": "NftMarketPlace__TokenNotOnSale",
      "type": "error"
    },
    {
      "inputs": [
        {
          "internalType": "uint256",
          "name": "valueSend",
          "type": "uint256"
        }
      ],
      "name": "NftMarketPlace__UnequalToSellPrice",
      "type": "error"
    },
    {
      "inputs": [
        {
          "internalType": "address",
          "name": "sender",
          "type": "address"
        },
        {
          "internalType": "uint256",
          "name": "valueSend",
          "type": "uint256"
        }
      ],
      "name": "NftMarketPlace__invalidSellPrice",
      "type": "error"
    },
    {
      "anonymous": false,
      "inputs": [
        {
          "indexed": true,
          "internalType": "address",
          "name": "nftContractAddress",
          "type": "address"
        },
        {
          "indexed": false,
          "internalType": "uint256",
          "name": "tokenId",
          "type": "uint256"
        },
        {
          "indexed": false,
          "internalType": "uint256",
          "name": "price",
          "type": "uint256"
        },
        {
          "indexed": false,
          "internalType": "bool",
          "name": "onSale",
          "type": "bool"
        },
        {
          "indexed": false,
          "internalType": "address",
          "name": "owner",
          "type": "address"
        },
        {
          "indexed": true,
          "internalType": "address",
          "name": "seller",
          "type": "address"
        }
      ],
      "name": "marketItemBought",
      "type": "event"
    },
    {
      "anonymous": false,
      "inputs": [
        {
          "indexed": true,
          "internalType": "address",
          "name": "nftContractAddress",
          "type": "address"
        },
        {
          "indexed": true,
          "internalType": "uint256",
          "name": "tokenId",
          "type": "uint256"
        },
        {
          "indexed": false,
          "internalType": "uint256",
          "name": "price",
          "type": "uint256"
        },
        {
          "indexed": false,
          "internalType": "bool",
          "name": "onSale",
          "type": "bool"
        },
        {
          "indexed": false,
          "internalType": "address",
          "name": "owner",
          "type": "address"
        },
        {
          "indexed": true,
          "internalType": "address",
          "name": "seller",
          "type": "address"
        }
      ],
      "name": "marketItemOnSale",
      "type": "event"
    },
    {
      "stateMutability": "payable",
      "type": "fallback"
    },
    {
      "inputs": [],
      "name": "LISTINGPRICE",
      "outputs": [
        {
          "internalType": "uint256",
          "name": "",
          "type": "uint256"
        }
      ],
      "stateMutability": "view",
      "type": "function"
    },
    {
      "inputs": [
        {
          "internalType": "uint256",
          "name": "_startingPrice",
          "type": "uint256"
        },
        {
          "internalType": "uint256",
          "name": "_discountRate",
          "type": "uint256"
        },
        {
          "internalType": "address",
          "name": "_nft",
          "type": "address"
        },
        {
          "internalType": "uint256",
          "name": "_nftId",
          "type": "uint256"
        }
      ],
      "name": "McreateDutchAuction",
      "outputs": [],
      "stateMutability": "nonpayable",
      "type": "function"
    },
    {
      "inputs": [
        {
          "internalType": "address",
          "name": "_nft",
          "type": "address"
        },
        {
          "internalType": "uint256",
          "name": "_nftId",
          "type": "uint256"
        },
        {
          "internalType": "uint256",
          "name": "_startingBid",
          "type": "uint256"
        }
      ],
      "name": "McreateEngAuction",
      "outputs": [],
      "stateMutability": "nonpayable",
      "type": "function"
    },
    {
      "inputs": [
        {
          "internalType": "uint256",
          "name": "_tokenId",
          "type": "uint256"
        }
      ],
      "name": "buyMarketToken",
      "outputs": [],
      "stateMutability": "payable",
      "type": "function"
    },
    {
      "inputs": [],
      "name": "fetchAllMyTokens",
      "outputs": [
        {
          "components": [
            {
              "internalType": "uint256",
              "name": "tokenId",
              "type": "uint256"
            },
            {
              "internalType": "uint256",
              "name": "price",
              "type": "uint256"
            },
            {
              "internalType": "bool",
              "name": "onSale",
              "type": "bool"
            },
            {
              "internalType": "address payable",
              "name": "seller",
              "type": "address"
            }
          ],
          "internalType": "struct NftMarketPlaceV2.MarketToken[]",
          "name": "",
          "type": "tuple[]"
        }
      ],
      "stateMutability": "view",
      "type": "function"
    },
    {
      "inputs": [],
      "name": "fetchAllTokens",
      "outputs": [
        {
          "components": [
            {
              "internalType": "uint256",
              "name": "tokenId",
              "type": "uint256"
            },
            {
              "internalType": "uint256",
              "name": "price",
              "type": "uint256"
            },
            {
              "internalType": "bool",
              "name": "onSale",
              "type": "bool"
            },
            {
              "internalType": "address payable",
              "name": "seller",
              "type": "address"
            }
          ],
          "internalType": "struct NftMarketPlaceV2.MarketToken[]",
          "name": "",
          "type": "tuple[]"
        }
      ],
      "stateMutability": "view",
      "type": "function"
    },
    {
      "inputs": [],
      "name": "fetchAllTokensOnSale",
      "outputs": [
        {
          "components": [
            {
              "internalType": "uint256",
              "name": "tokenId",
              "type": "uint256"
            },
            {
              "internalType": "uint256",
              "name": "price",
              "type": "uint256"
            },
            {
              "internalType": "bool",
              "name": "onSale",
              "type": "bool"
            },
            {
              "internalType": "address payable",
              "name": "seller",
              "type": "address"
            }
          ],
          "internalType": "struct NftMarketPlaceV2.MarketToken[]",
          "name": "",
          "type": "tuple[]"
        }
      ],
      "stateMutability": "view",
      "type": "function"
    },
    {
      "inputs": [],
      "name": "getListingPrice",
      "outputs": [
        {
          "internalType": "uint256",
          "name": "",
          "type": "uint256"
        }
      ],
      "stateMutability": "pure",
      "type": "function"
    },
    {
      "inputs": [],
      "name": "getTrustedForwarder",
      "outputs": [
        {
          "internalType": "address",
          "name": "forwarder",
          "type": "address"
        }
      ],
      "stateMutability": "view",
      "type": "function"
    },
    {
      "inputs": [
        {
          "internalType": "uint256",
          "name": "",
          "type": "uint256"
        }
      ],
      "name": "idToMarketToken",
      "outputs": [
        {
          "internalType": "uint256",
          "name": "tokenId",
          "type": "uint256"
        },
        {
          "internalType": "uint256",
          "name": "price",
          "type": "uint256"
        },
        {
          "internalType": "bool",
          "name": "onSale",
          "type": "bool"
        },
        {
          "internalType": "address payable",
          "name": "seller",
          "type": "address"
        }
      ],
      "stateMutability": "view",
      "type": "function"
    },
    {
      "inputs": [
        {
          "internalType": "address",
          "name": "forwarder",
          "type": "address"
        }
      ],
      "name": "isTrustedForwarder",
      "outputs": [
        {
          "internalType": "bool",
          "name": "",
          "type": "bool"
        }
      ],
      "stateMutability": "view",
      "type": "function"
    },
    {
      "inputs": [
        {
          "internalType": "uint256",
          "name": "_tokenId",
          "type": "uint256"
        },
        {
          "internalType": "uint256",
          "name": "sellPrice",
          "type": "uint256"
        }
      ],
      "name": "sellMarketToken",
      "outputs": [],
      "stateMutability": "nonpayable",
      "type": "function"
    },
    {
      "inputs": [
        {
          "internalType": "address",
          "name": "_nftAddress",
          "type": "address"
        }
      ],
      "name": "setNftAddress",
      "outputs": [],
      "stateMutability": "nonpayable",
      "type": "function"
    },
    {
      "inputs": [],
      "name": "versionRecipient",
      "outputs": [
        {
          "internalType": "string",
          "name": "",
          "type": "string"
        }
      ],
      "stateMutability": "view",
      "type": "function"
    },
    {
      "inputs": [],
      "name": "withdrawContractsProfits",
      "outputs": [],
      "stateMutability": "nonpayable",
      "type": "function"
    }
  ],
  "bytecode": "0x60e06040526000600560006101000a81548173ffffffffffffffffffffffffffffffffffffffff021916908373ffffffffffffffffffffffffffffffffffffffff1602179055506040518060400160405280600681526020017f76302e302e31000000000000000000000000000000000000000000000000000081525060069080519060200190620000939291906200023a565b50348015620000a157600080fd5b50604051620028c1380380620028c18339818101604052810190620000c7919062000354565b6001600081905550620000df6200018260201b60201c565b73ffffffffffffffffffffffffffffffffffffffff1660808173ffffffffffffffffffffffffffffffffffffffff16815250508173ffffffffffffffffffffffffffffffffffffffff1660a08173ffffffffffffffffffffffffffffffffffffffff16815250508073ffffffffffffffffffffffffffffffffffffffff1660c08173ffffffffffffffffffffffffffffffffffffffff16815250505050620003ff565b6000620001996200019e60201b6200199d1760201c565b905090565b60006014600036905010158015620001c35750620001c233620001e060201b60201c565b5b15620001d957601436033560601c9050620001dd565b3390505b90565b6000600160009054906101000a900473ffffffffffffffffffffffffffffffffffffffff1673ffffffffffffffffffffffffffffffffffffffff168273ffffffffffffffffffffffffffffffffffffffff16149050919050565b8280546200024890620003ca565b90600052602060002090601f0160209004810192826200026c5760008555620002b8565b82601f106200028757805160ff1916838001178555620002b8565b82800160010185558215620002b8579182015b82811115620002b75782518255916020019190600101906200029a565b5b509050620002c79190620002cb565b5090565b5b80821115620002e6576000816000905550600101620002cc565b5090565b600080fd5b600073ffffffffffffffffffffffffffffffffffffffff82169050919050565b60006200031c82620002ef565b9050919050565b6200032e816200030f565b81146200033a57600080fd5b50565b6000815190506200034e8162000323565b92915050565b600080604083850312156200036e576200036d620002ea565b5b60006200037e858286016200033d565b925050602062000391858286016200033d565b9150509250929050565b7f4e487b7100000000000000000000000000000000000000000000000000000000600052602260045260246000fd5b60006002820490506001821680620003e357607f821691505b602082108103620003f957620003f86200039b565b5b50919050565b60805160a05160c05161248b620004366000396000611506015260006105f401526000818161038a01526107c0015261248b6000f3fe6080604052600436106100ec5760003560e01c80637929d1b51161008a578063a5f21a9f11610059578063a5f21a9f146102e0578063a80df8c014610309578063ce1b815f14610334578063de3689d31461035f576100ed565b80637929d1b51461022e5780638abc87dd1461026e57806390effc831461028a5780639e65442c146102b5576100ed565b80633979e09b116100c65780633979e09b14610186578063486ff0cd146101af578063572b6c05146101da5780636a31d99214610217576100ed565b80630b102d1a1461010757806312e85585146101305780632528b6761461015b576100ed565b5b34600460008282546100ff9190611b1e565b925050819055005b34801561011357600080fd5b5061012e60048036038101906101299190611bd7565b610388565b005b34801561013c57600080fd5b5061014561046a565b6040516101529190611c13565b60405180910390f35b34801561016757600080fd5b50610170610479565b60405161017d9190611d7d565b60405180910390f35b34801561019257600080fd5b506101ad60048036038101906101a89190611dcb565b6105f2565b005b3480156101bb57600080fd5b506101c4610689565b6040516101d19190611ecb565b60405180910390f35b3480156101e657600080fd5b5061020160048036038101906101fc9190611bd7565b610717565b60405161020e9190611efc565b60405180910390f35b34801561022357600080fd5b5061022c610771565b005b34801561023a57600080fd5b5061025560048036038101906102509190611f17565b610924565b6040516102659493929190611f53565b60405180910390f35b61028860048036038101906102839190611f17565b610981565b005b34801561029657600080fd5b5061029f611005565b6040516102ac9190611d7d565b60405180910390f35b3480156102c157600080fd5b506102ca611283565b6040516102d79190611d7d565b60405180910390f35b3480156102ec57600080fd5b5061030760048036038101906103029190611f98565b611504565b005b34801561031557600080fd5b5061031e611598565b60405161032b9190611c13565b60405180910390f35b34801561034057600080fd5b506103496115a3565b6040516103569190611ffa565b60405180910390f35b34801561036b57600080fd5b5061038660048036038101906103819190612015565b6115cd565b005b7f000000000000000000000000000000000000000000000000000000000000000073ffffffffffffffffffffffffffffffffffffffff166103c76119d4565b73ffffffffffffffffffffffffffffffffffffffff1614610426576103ea6119d4565b6040517fbb324d9400000000000000000000000000000000000000000000000000000000815260040161041d9190611ffa565b60405180910390fd5b80600560006101000a81548173ffffffffffffffffffffffffffffffffffffffff021916908373ffffffffffffffffffffffffffffffffffffffff16021790555050565b600066071afd498d0000905090565b60606000600560009054906101000a900473ffffffffffffffffffffffffffffffffffffffff1673ffffffffffffffffffffffffffffffffffffffff1663627f0c286040518163ffffffff1660e01b8152600401602060405180830381865afa1580156104ea573d6000803e3d6000fd5b505050506040513d601f19601f8201168201806040525081019061050e919061206a565b905060008167ffffffffffffffff81111561052c5761052b612097565b5b60405190808252806020026020018201604052801561056557816020015b610552611aa5565b81526020019060019003908161054a5790505b5090506000600190505b8281116105e95760405180608001604052808281526020016000815260200160001515815260200161059f6119d4565b73ffffffffffffffffffffffffffffffffffffffff168152508282815181106105cb576105ca6120c6565b5b602002602001018190525080806105e1906120f5565b91505061056f565b50809250505090565b7f000000000000000000000000000000000000000000000000000000000000000073ffffffffffffffffffffffffffffffffffffffff1663e16ca6c0858585856040518563ffffffff1660e01b8152600401610651949392919061213d565b600060405180830381600087803b15801561066b57600080fd5b505af115801561067f573d6000803e3d6000fd5b5050505050505050565b60068054610696906121b1565b80601f01602080910402602001604051908101604052809291908181526020018280546106c2906121b1565b801561070f5780601f106106e45761010080835404028352916020019161070f565b820191906000526020600020905b8154815290600101906020018083116106f257829003601f168201915b505050505081565b6000600160009054906101000a900473ffffffffffffffffffffffffffffffffffffffff1673ffffffffffffffffffffffffffffffffffffffff168273ffffffffffffffffffffffffffffffffffffffff16149050919050565b6002600054036107b6576040517f08c379a00000000000000000000000000000000000000000000000000000000081526004016107ad9061222e565b60405180910390fd5b60026000819055507f000000000000000000000000000000000000000000000000000000000000000073ffffffffffffffffffffffffffffffffffffffff166107fd6119d4565b73ffffffffffffffffffffffffffffffffffffffff161461085c576108206119d4565b6040517fbb324d940000000000000000000000000000000000000000000000000000000081526004016108539190611ffa565b60405180910390fd5b60006108666119d4565b73ffffffffffffffffffffffffffffffffffffffff1660045460405161088b9061227f565b60006040518083038185875af1925050503d80600081146108c8576040519150601f19603f3d011682016040523d82523d6000602084013e6108cd565b606091505b5050905080610911576040517f08c379a0000000000000000000000000000000000000000000000000000000008152600401610908906122e0565b60405180910390fd5b6000600481905550506001600081905550565b60036020528060005260406000206000915090508060000154908060010154908060020160009054906101000a900460ff16908060020160019054906101000a900473ffffffffffffffffffffffffffffffffffffffff16905084565b6002600054036109c6576040517f08c379a00000000000000000000000000000000000000000000000000000000081526004016109bd9061222e565b60405180910390fd5b600260008190555060008111610a1357806040517f681f5615000000000000000000000000000000000000000000000000000000008152600401610a0a9190611c13565b60405180910390fd5b600115156003600083815260200190815260200160002060020160009054906101000a900460ff16151514610a7f57806040517f61e4bceb000000000000000000000000000000000000000000000000000000008152600401610a769190611c13565b60405180910390fd5b60036000828152602001908152602001600020600101543414610ad957346040517f45f11e18000000000000000000000000000000000000000000000000000000008152600401610ad09190611c13565b60405180910390fd5b600560009054906101000a900473ffffffffffffffffffffffffffffffffffffffff1673ffffffffffffffffffffffffffffffffffffffff16636352211e826040518263ffffffff1660e01b8152600401610b349190611c13565b602060405180830381865afa158015610b51573d6000803e3d6000fd5b505050506040513d601f19601f82011682018060405250810190610b759190612315565b73ffffffffffffffffffffffffffffffffffffffff16610b936119d4565b73ffffffffffffffffffffffffffffffffffffffff1603610bf457610bb66119d4565b816040517fbb4cd47d000000000000000000000000000000000000000000000000000000008152600401610beb929190612342565b60405180910390fd5b6003600082815260200190815260200160002060020160019054906101000a900473ffffffffffffffffffffffffffffffffffffffff1673ffffffffffffffffffffffffffffffffffffffff16610c496119d4565b73ffffffffffffffffffffffffffffffffffffffff1603610caa57610c6c6119d4565b816040517fbb4cd47d000000000000000000000000000000000000000000000000000000008152600401610ca1929190612342565b60405180910390fd5b600560009054906101000a900473ffffffffffffffffffffffffffffffffffffffff1673ffffffffffffffffffffffffffffffffffffffff166323b872dd30610cf16119d4565b846040518463ffffffff1660e01b8152600401610d109392919061236b565b600060405180830381600087803b158015610d2a57600080fd5b505af1158015610d3e573d6000803e3d6000fd5b505050506003600082815260200190815260200160002060020160019054906101000a900473ffffffffffffffffffffffffffffffffffffffff1673ffffffffffffffffffffffffffffffffffffffff166108fc349081150290604051600060405180830381858888f19350505050158015610dbe573d6000803e3d6000fd5b506003600082815260200190815260200160002060008082016000905560018201600090556002820160006101000a81549060ff02191690556002820160016101000a81549073ffffffffffffffffffffffffffffffffffffffff02191690555050600560009054906101000a900473ffffffffffffffffffffffffffffffffffffffff1673ffffffffffffffffffffffffffffffffffffffff16636352211e826040518263ffffffff1660e01b8152600401610e7b9190611c13565b602060405180830381865afa158015610e98573d6000803e3d6000fd5b505050506040513d601f19601f82011682018060405250810190610ebc9190612315565b73ffffffffffffffffffffffffffffffffffffffff16600560009054906101000a900473ffffffffffffffffffffffffffffffffffffffff1673ffffffffffffffffffffffffffffffffffffffff167f83d58fac7b45f66283ebfd19232b0f3cbe6e170a64ea3630147d8e8087fcb0fa8360036000868152602001908152602001600020600101546000600560009054906101000a900473ffffffffffffffffffffffffffffffffffffffff1673ffffffffffffffffffffffffffffffffffffffff16636352211e886040518263ffffffff1660e01b8152600401610fa19190611c13565b602060405180830381865afa158015610fbe573d6000803e3d6000fd5b505050506040513d601f19601f82011682018060405250810190610fe29190612315565b604051610ff294939291906123a2565b60405180910390a3600160008190555050565b60606000600560009054906101000a900473ffffffffffffffffffffffffffffffffffffffff1673ffffffffffffffffffffffffffffffffffffffff1663627f0c286040518163ffffffff1660e01b8152600401602060405180830381865afa158015611076573d6000803e3d6000fd5b505050506040513d601f19601f8201168201806040525081019061109a919061206a565b9050600080600190505b8281116110fd57600115156003600083815260200190815260200160002060020160009054906101000a900460ff161515036110ea576001826110e79190611b1e565b91505b80806110f5906120f5565b9150506110a4565b5060008167ffffffffffffffff81111561111a57611119612097565b5b60405190808252806020026020018201604052801561115357816020015b611140611aa5565b8152602001906001900390816111385790505b509050600080600190505b84811161127857600115156003600083815260200190815260200160002060020160009054906101000a900460ff16151503611265576003600082815260200190815260200160002060405180608001604052908160008201548152602001600182015481526020016002820160009054906101000a900460ff161515151581526020016002820160019054906101000a900473ffffffffffffffffffffffffffffffffffffffff1673ffffffffffffffffffffffffffffffffffffffff1673ffffffffffffffffffffffffffffffffffffffff168152505083838151811061124a576112496120c6565b5b60200260200101819052506001826112629190611b1e565b91505b8080611270906120f5565b91505061115e565b508194505050505090565b60606000600560009054906101000a900473ffffffffffffffffffffffffffffffffffffffff1673ffffffffffffffffffffffffffffffffffffffff166370a082316112cd6119d4565b6040518263ffffffff1660e01b81526004016112e99190611ffa565b602060405180830381865afa158015611306573d6000803e3d6000fd5b505050506040513d601f19601f8201168201806040525081019061132a919061206a565b9050611335816119e3565b6000808267ffffffffffffffff81111561135257611351612097565b5b60405190808252806020026020018201604052801561138b57816020015b611378611aa5565b8152602001906001900390816113705790505b5090506000600190505b838310156114fa576000600560009054906101000a900473ffffffffffffffffffffffffffffffffffffffff1673ffffffffffffffffffffffffffffffffffffffff16636352211e836040518263ffffffff1660e01b81526004016113fa9190611c13565b602060405180830381865afa158015611417573d6000803e3d6000fd5b505050506040513d601f19601f8201168201806040525081019061143b9190612315565b90506114456119d4565b73ffffffffffffffffffffffffffffffffffffffff168173ffffffffffffffffffffffffffffffffffffffff16036114e6576040518060800160405280838152602001600081526020016000151581526020016114a06119d4565b73ffffffffffffffffffffffffffffffffffffffff168152508385815181106114cc576114cb6120c6565b5b602002602001018190525083806114e2906120f5565b9450505b5080806114f2906120f5565b915050611395565b5080935050505090565b7f000000000000000000000000000000000000000000000000000000000000000073ffffffffffffffffffffffffffffffffffffffff16639762bb0d8484846040518463ffffffff1660e01b8152600401611561939291906123e7565b600060405180830381600087803b15801561157b57600080fd5b505af115801561158f573d6000803e3d6000fd5b50505050505050565b66071afd498d000081565b6000600160009054906101000a900473ffffffffffffffffffffffffffffffffffffffff16905090565b6000811161161b576115dd6119d4565b816040517fab30c829000000000000000000000000000000000000000000000000000000008152600401611612929190612342565b60405180910390fd5b600115156003600084815260200190815260200160002060020160009054906101000a900460ff1615150361168757816040517f8d4ee15a00000000000000000000000000000000000000000000000000000000815260040161167e9190611c13565b60405180910390fd5b61168f6119d4565b73ffffffffffffffffffffffffffffffffffffffff16600560009054906101000a900473ffffffffffffffffffffffffffffffffffffffff1673ffffffffffffffffffffffffffffffffffffffff16636352211e846040518263ffffffff1660e01b81526004016117009190611c13565b602060405180830381865afa15801561171d573d6000803e3d6000fd5b505050506040513d601f19601f820116820180604052508101906117419190612315565b73ffffffffffffffffffffffffffffffffffffffff16146117a2576117646119d4565b826040517f814d1379000000000000000000000000000000000000000000000000000000008152600401611799929190612342565b60405180910390fd5b600560009054906101000a900473ffffffffffffffffffffffffffffffffffffffff1673ffffffffffffffffffffffffffffffffffffffff166323b872dd6117e86119d4565b30856040518463ffffffff1660e01b81526004016118089392919061236b565b600060405180830381600087803b15801561182257600080fd5b505af1158015611836573d6000803e3d6000fd5b5050505060405180608001604052808381526020018281526020016001151581526020016118626119d4565b73ffffffffffffffffffffffffffffffffffffffff1681525060036000848152602001908152602001600020600082015181600001556020820151816001015560408201518160020160006101000a81548160ff02191690831515021790555060608201518160020160016101000a81548173ffffffffffffffffffffffffffffffffffffffff021916908373ffffffffffffffffffffffffffffffffffffffff1602179055509050503373ffffffffffffffffffffffffffffffffffffffff1682600560009054906101000a900473ffffffffffffffffffffffffffffffffffffffff1673ffffffffffffffffffffffffffffffffffffffff167f6732a7370fa1194f1d066277bb24c5dcaad07a9a901cbec919f4dfe477d9954c846001336040516119919392919061241e565b60405180910390a45050565b600060146000369050101580156119b957506119b833610717565b5b156119cd57601436033560601c90506119d1565b3390505b90565b60006119de61199d565b905090565b611a79816040516024016119f79190611c13565b6040516020818303038152906040527ff5b1bba9000000000000000000000000000000000000000000000000000000007bffffffffffffffffffffffffffffffffffffffffffffffffffffffff19166020820180517bffffffffffffffffffffffffffffffffffffffffffffffffffffffff8381831617835250505050611a7c565b50565b60008151905060006a636f6e736f6c652e6c6f679050602083016000808483855afa5050505050565b60405180608001604052806000815260200160008152602001600015158152602001600073ffffffffffffffffffffffffffffffffffffffff1681525090565b6000819050919050565b7f4e487b7100000000000000000000000000000000000000000000000000000000600052601160045260246000fd5b6000611b2982611ae5565b9150611b3483611ae5565b9250827fffffffffffffffffffffffffffffffffffffffffffffffffffffffffffffffff03821115611b6957611b68611aef565b5b828201905092915050565b600080fd5b600073ffffffffffffffffffffffffffffffffffffffff82169050919050565b6000611ba482611b79565b9050919050565b611bb481611b99565b8114611bbf57600080fd5b50565b600081359050611bd181611bab565b92915050565b600060208284031215611bed57611bec611b74565b5b6000611bfb84828501611bc2565b91505092915050565b611c0d81611ae5565b82525050565b6000602082019050611c286000830184611c04565b92915050565b600081519050919050565b600082825260208201905092915050565b6000819050602082019050919050565b611c6381611ae5565b82525050565b60008115159050919050565b611c7e81611c69565b82525050565b6000611c8f82611b79565b9050919050565b611c9f81611c84565b82525050565b608082016000820151611cbb6000850182611c5a565b506020820151611cce6020850182611c5a565b506040820151611ce16040850182611c75565b506060820151611cf46060850182611c96565b50505050565b6000611d068383611ca5565b60808301905092915050565b6000602082019050919050565b6000611d2a82611c2e565b611d348185611c39565b9350611d3f83611c4a565b8060005b83811015611d70578151611d578882611cfa565b9750611d6283611d12565b925050600181019050611d43565b5085935050505092915050565b60006020820190508181036000830152611d978184611d1f565b905092915050565b611da881611ae5565b8114611db357600080fd5b50565b600081359050611dc581611d9f565b92915050565b60008060008060808587031215611de557611de4611b74565b5b6000611df387828801611db6565b9450506020611e0487828801611db6565b9350506040611e1587828801611bc2565b9250506060611e2687828801611db6565b91505092959194509250565b600081519050919050565b600082825260208201905092915050565b60005b83811015611e6c578082015181840152602081019050611e51565b83811115611e7b576000848401525b50505050565b6000601f19601f8301169050919050565b6000611e9d82611e32565b611ea78185611e3d565b9350611eb7818560208601611e4e565b611ec081611e81565b840191505092915050565b60006020820190508181036000830152611ee58184611e92565b905092915050565b611ef681611c69565b82525050565b6000602082019050611f116000830184611eed565b92915050565b600060208284031215611f2d57611f2c611b74565b5b6000611f3b84828501611db6565b91505092915050565b611f4d81611c84565b82525050565b6000608082019050611f686000830187611c04565b611f756020830186611c04565b611f826040830185611eed565b611f8f6060830184611f44565b95945050505050565b600080600060608486031215611fb157611fb0611b74565b5b6000611fbf86828701611bc2565b9350506020611fd086828701611db6565b9250506040611fe186828701611db6565b9150509250925092565b611ff481611b99565b82525050565b600060208201905061200f6000830184611feb565b92915050565b6000806040838503121561202c5761202b611b74565b5b600061203a85828601611db6565b925050602061204b85828601611db6565b9150509250929050565b60008151905061206481611d9f565b92915050565b6000602082840312156120805761207f611b74565b5b600061208e84828501612055565b91505092915050565b7f4e487b7100000000000000000000000000000000000000000000000000000000600052604160045260246000fd5b7f4e487b7100000000000000000000000000000000000000000000000000000000600052603260045260246000fd5b600061210082611ae5565b91507fffffffffffffffffffffffffffffffffffffffffffffffffffffffffffffffff820361213257612131611aef565b5b600182019050919050565b60006080820190506121526000830187611c04565b61215f6020830186611c04565b61216c6040830185611feb565b6121796060830184611c04565b95945050505050565b7f4e487b7100000000000000000000000000000000000000000000000000000000600052602260045260246000fd5b600060028204905060018216806121c957607f821691505b6020821081036121dc576121db612182565b5b50919050565b7f5265656e7472616e637947756172643a207265656e7472616e742063616c6c00600082015250565b6000612218601f83611e3d565b9150612223826121e2565b602082019050919050565b600060208201905081810360008301526122478161220b565b9050919050565b600081905092915050565b50565b600061226960008361224e565b915061227482612259565b600082019050919050565b600061228a8261225c565b9150819050919050565b7f5061796d656e74207761736e2774207375636365737366756c6c000000000000600082015250565b60006122ca601a83611e3d565b91506122d582612294565b602082019050919050565b600060208201905081810360008301526122f9816122bd565b9050919050565b60008151905061230f81611bab565b92915050565b60006020828403121561232b5761232a611b74565b5b600061233984828501612300565b91505092915050565b60006040820190506123576000830185611feb565b6123646020830184611c04565b9392505050565b60006060820190506123806000830186611feb565b61238d6020830185611feb565b61239a6040830184611c04565b949350505050565b60006080820190506123b76000830187611c04565b6123c46020830186611c04565b6123d16040830185611eed565b6123de6060830184611feb565b95945050505050565b60006060820190506123fc6000830186611feb565b6124096020830185611c04565b6124166040830184611c04565b949350505050565b60006060820190506124336000830186611c04565b6124406020830185611eed565b61244d6040830184611feb565b94935050505056fea264697066735822122000318634d29f0f38b558ff94b6f82b871af7aaabb9501ccba9e5ad1ed37913e964736f6c634300080d0033",
  "linkReferences": {},
  "deployedLinkReferences": {}
}